:100000000206E7E4FE1FEFC3940A220264FA536576
:100010006E64204578706C6F7265722052657175E0
:100020006573740A001103501012493AE4F0A3F00A
:10003000EF123709E4F0A3F00EAF062290046EEF42
:0A004000F0D21E229002DAA1AC22D9
:10004B0002632F496E2057616B75702063616C6C76
:10005B006261636B0A005761746368646F67206346
:10006B00616C6C6261636B0A005761746368646FE7
:10007B00672073746172740A0053766520436F6E48
:10008B0066696775726174696F6E0A0053657420D7
:10009B0064656661756C7420636F6E6669677572F3
:1000AB006174696F6E0A004C6F616420436F6E66FA
:1000BB00696775726174696F6E0A00507261706165
:1000CB0072652042617369632053657420706163AC
:1000DB006B65740A0048617665204E6F6465204934
:1000EB00440A0048617665206E6F646520696E2056
:1000FB006173736F63696174696F6E206C6973747C
:10010B000A0042310A0042320A0042330A004E6FA3
:10011B00204E6F646520496E2041736F6369617473
:10012B00696F6E204C6973740A00446F6E742048BB
:10013B00617665204E6F64652049440A00417373F4
:10014B006F63696174696F6E2073746F7265206180
:10015B006C6C0A004173736F63696174696F6E2015
:10016B00436C65617220416C6C0A004173736F6361
:10017B00696174696F6E20496E69740A004173730B
:10018B006F63696174696F6E2053656E64204E6591
:10019B0078740A004E6F646520312046436E0A0066
:1001AB004E6F646520322046436E0A004E6F6465C5
:1001BB0020332046436E0A004173736F6369617489
:1001CB00696F6E2053656E642042617369632053BF
:1001DB0065742000746F204E6F64652049443A00AB
:1001EB000A004173736F63696174696F6E204272A9
:1001FB006F6164636173740A0046696E697368208A
:10020B0073656E6420746F20616C6C206E6F646517
:10021B000A0053656E6420436F6D706C6574656482
:10022B002043616C6C6261636B0A004173736F6393
:10023B00696174696F6E2053656E6420746F204E14
:10024B006F6465004C6561726E20436F6D706C65F9
:10025B007465640A0048656C6C6F0A0053746174B2
:10026B00653A2049444C450A0053746174653A2041
:10027B0053544154455F434F4D4D414E445F4841AC
:10028B004E444C45520A0053746174653A205354E2
:10029B004154455F4845414C5F4C4F53540A005302
:1002AB00746174653A2053544154455F424153493C
:1002BB00435F434D445F574149540A005374617483
:1002CB00653A2053544154455F42415349435F4380
:1002DB004D445F53544152540A0053746174653A50
:1002EB002053544154455F42415349435F434D446E
:1002FB000A0053746174653A2053544154455F4C62
:10030B004541524E5F4D4F44450A0053746174652D
:10031B003A2053544154455F4C4541524E5F4D4F2B
:10032B0044455F53544152540A0053746174653A07
:10033B002053544154455F434845434B5F494E500E
:10034B0055540A0053746174653A20535441544513
:10035B005F455845435554450A00526563656976B8
:10036B0065205246205061636B65740A00526563C9
:10037B00656976652056455253494F4E5F47455444
:10038B000A00526563656976652056455253494F9D
:10039B004E5F434F4D4D414E445F434C4153535F72
:1003AB004745540A004D414E55464143545552451D
:1003BB00525F53504543494649435F4745540041BB
:1003CB0073736F63696174696F6E20436F6D6D61D9
:1003DB006E6420436C6173733A4765740A00417312
:1003EB00736F63696174696F6E20436F6D6D616EBE
:1003FB006420436C6173733A5365740A00417373E1
:10040B006F63696174696F6E20436F6D6D616E64AC
:10041B0020436C6173733A52656D6F76650A0041C8
:10042B0073736F63696174696F6E20436F6D6D6178
:10043B006E6420436C6173733A47726F757020471B
:10044B0065740A003072868500BB010689828A8337
:10045B00E0225002E722BBFE02E32289828A83E478
:10046B009322BB010CE58229F582E5833AF583E003
:10047B00225006E92582F8E622BBFE06E92582F822
:10048B00E222E58229F582E5833AF583E49322BBE8
:10049B00010689828A83F0225002F722BBFE01F308
:1004AB0022F8BB010DE58229F582E5833AF583E855
:1004BB00F0225006E92582C8F622BBFE05E925820B
:1004CB00C8F222EF8DF0A4A8F0CF8CF0A428CE8D2B
:1004DB00F0A42EFE22C5F0F8A3E028F0C5F0F8E555
:1004EB0082158270021583E038F022A3F8E0C5F084
:1004FB0025F0F0E582158270021583E0C838F0E82C
:10050B0022BB0110E58229F582E5833AF583E0F5FC
:10051B00F0A3E0225009E92582F886F008E622BB19
:10052B00FE0AE92582F8E2F5F008E222E5832AF5D6
:10053B0083E993F5F0A3E99322F8BB0111E5822936
:10054B00F582E5833AF583E8F0E5F0A3F022500954
:10055B00E92582C8F608A6F022BBFE09E92582C868
:10056B00F2E5F008F222D083D082E493F208740112
:10057B0093F208740293F208740393F2740473E613
:10058B00FB08E6FA08E6F922FAE6FB0808E6F92585
:10059B00F0F618E6CA3AF622EBF608EAF608E9F6A0
:1005AB0022E0FBA3E0FAA3E0F922F8E0FBA3A3E02F
:1005BB00F925F0F0E582158270021583E0FA38F028
:1005CB0022EBF0A3EAF0A3E9F022BB010789828AB0
:1005DB00830205AC5005E9F802058ABBFE05E9F874
:1005EB000206C989828A830206DBBB011A89828AC9
:1005FB0083D0F0D0E0F8D0E0F9D0E0FAD0E0FBE81F
:10060B00C0E0C0F00205CC5016E9F8D083D082D000
:10061B00E0F9D0E0FAD0E0FBC082C0830205A3BBB7
:10062B00FE16E9F8D083D082D0E0F9D0E0FAD0E022
:10063B00FBC082C0830206D222BB0120E58229F5D2
:10064B0082E5833AF583D0F0D0E0F8D0E0F9D0E042
:10065B00FAD0E0FBE8C0E0C0F00205CC5018E92569
:10066B0082F8D083D082D0E0F9D0E0FAD0E0FBC0A2
:10067B0082C0830205A3BBFE18E92582F8D083D084
:10068B0082D0E0F9D0E0FAD0E0FBC082C083020652
:10069B00D222D083D082F8E4937012740193700D40
:1006AB00A3A393F8740193F5828883E47374029384
:1006BB006860EFA3A3A380DF8A838982E473E2FBE4
:1006CB0008E2FA08E2F922EBF208EAF208E9F22270
:1006DB00E493FB740193FA740293F92278FFE4F626
:1006EB00D8FD9000007FBD7E08E4F0A3DFFCDEFAAE
:1006FB0075A0007581B602073F0232B3E493A3F8ED
:10070B00E493A34003F68001F208DFF48029E4931D
:10071B00A3F85407240CC8C333C4540F4420C88314
:10072B004004F456800146F6DFE4800B0102040816
:10073B0010204080900784E47E019360BCA3FF549B
:10074B003F30E509541FFEE493A360010ECF54C064
:10075B0025E060A840B8E493A3FAE493A3F8E493EC
:10076B00A3C8C582C8CAC583CAF0A3C8C582C8CAF4
:10077B00C583CADFE9DEE780BE4103BFFF4103BA91
:10078B00FFC19EC11F4103E2FF4103DEFF4103E1B5
:10079B003CC1264103DF00C1274102CAFF4102D001
:1007AB00FF4102D4084102D7004102C4004102D3E9
:1007BB00004102C800C1284102C900C102C107C1E2
:1007CB0005011F0041024600C101810400C100C1A7
:1007DB008341017A00015500C10C810B008110FF90
:1007EB00C109015300015400C10BC10E4100ED00C2
:1007FB0041044906012E00C11201330001310001F1
:10080B003200C110C10FC113C11DC117013C00C182
:10081B0014C115004173736F63696174696F6E2046
:10082B004164642C204E756D626572206F66204E9C
:10083B006F64653A000A004173736F636961746991
:10084B006F6E2052656D6F76652C204E756D6265EF
:10085B0072206F66204E6F64653A002C2047726FD2
:10086B0075703A2000200A002D2C2B2A29281C1BDE
:10087B001A191817161514130001010202030304A9
:10088B000405F0C8A79177676046383532302422CB
:10089B002014362A393D34323F0000900458EFF0D3
:1008AB00A3EDF09003BAE0FFF4600312670190042C
:1008BB0058E0FFB40206C21ED21F8002D21EEF7098
:1008CB000D301F023115900459E0FF0218329003CE
:1008DB00BFE0FFF460031200259003BF74FFF0220A
:1008EB009003BB1264E27021301F1E31157B017A1D
:1008FB0004796F9003C91205CC1B7A00790012366C
:10090B005990046FE0FF12183222E4FDFCFF121025
:10091B00B5FFF460091200259003BF74FFF090033C
:10092B00BAE0FFF46003126701C21F22900471EF5B
:10093B00F0301F023115900471E0FF6003121001BB
:10094B00229002D5E0600F7F023137E49002D5F0A0
:10095B009002C47406F09002C4E012069D098A004E
:10096B0009B5010A000309F1040A0A060A23070A5A
:10097B0039080A450909AB0C09CC0E00000A527B59
:10098B00FF7A027967E4FF515C1238DD9002D3E005
:10099B009002C46007F0E49002D3F0227408F022B6
:1009AB007BFF7A0279747F0C41377BFF7A02799255
:1009BB007F01515C9002C47408F09002D37401F073
:1009CB00227BFF7A0279AA7F0E515C9002D6E0B4AB
:1009DB00FF127E387F261210709002D6EFF0BFFF09
:1009EB0003123826805E7BFF7A0279C77F04515C45
:1009FB00122595E1607BFF7A0279E57F03802D124A
:100A0B0039DFBF0109E4FF3137E49002C4F07BFF0B
:100A1B007A0279FD7F0680149002C47406F0F160AF
:100A2B007F0131377BFF7A0379167F0780237BFFAA
:100A3B007A0379357F08515C800A7BFF7A03794F03
:100A4B007F09515C02392F7F5871BFE49002C4F0CB
:100A5B00229002D1E06F6004EFF0F12722516C7FFE
:100A6B006D900481EFF090045E124933600C90049A
:100A7B0081E0FF8D828C830206C7302A0AE5D820DD
:100A8B00E10512372780F653D8FE900481E0F5CBB1
:100A9B00D22A22900472EFF07F4851689003DFE076
:100AAB00FF71C65380FD900472E07004D22581570C
:100ABB007F4851687F31516C9003DFE0FFB4011325
:100ACB009002C9E0FEF49003DF600F7402F0A3EE16
:100ADB00F08056EFB4020C9003DF7403F0A37401A3
:100AEB00F080469003DFE06403703E7F4851687FDF
:100AFB0032F1AE9003E0E0FF71C69003E0E004F04A
:100B0B009002D7E0FF9003E0E0FEB5070404FF80FE
:100B1B0002AF069003E0EFF0D394E8400C7F48510E
:100B2B00687F4DF1C59002D3F09003DFE060327F18
:100B3B004851687F4E126790F460167F661267907B
:100B4B00FF71C69003DEE0FF1200259003DE74FFF9
:100B5B00F0F1607E187F001210709003DEEFF071E1
:100B6B00C6229003DFE06002D3227F56516C7F6C6C
:100B7B00516C7F20F159F1A8F159C3940340331202
:100B8B00301C516C7F53516C7F7371BF7F6E516CF6
:100B9B009002D3E0FF71C61261E3EF60137F4851FF
:100BAB006C7F38516C9003DF7401F01261E391801C
:100BBB00D322C322516C9002C4E0FF900482EFF069
:100BCB00E0C4540FFF124EDE516C900482E0FF1212
:100BDB004EDE416C1260D590045AEFF075F00C8428
:100BEB00E5F02407A3F07F5FF14F7F72516C900407
:100BFB005AF1A7F14F7F64910871C67F5F516C90DA
:100C0B00045BE0FF222024069002D7E070117F20C6
:100C1B00516C7F45F14F7F44F1C59002D3F0229088
:100C2B0007E8E014F07F54F1AE9007E8E0FF71C6DF
:100C3B009007E8E0D3940050127F54516C7F6B51B6
:100C4B006C71DF9007E8EFF012617B227F48516CEB
:100C5B007F36F1497F663025027F73F1494380026D
:100C6B007F043025027F0091AE30250312617BE4B7
:100C7B009002C4F02290047312675A7F33F14990AB
:100C8B000473F1A7516C900473E0FF7C0A7D9E12F4
:100C9B0061E6EF700D7F48516C7F33126714C225EC
:100CAB0091572290047412675A7F30516C900474E0
:100CBB00E060117F48F15504F0E0D39403401274C7
:100CCB0004F0800D7F48516C7F73516CE49007EA00
:100CDB00F0616D9002D9EDF09002D8EFF09002DA4E
:100CEB001205CCF1439002DEF0121FDD9002DFF013
:100CFB001214B89002E0F01217749002E1125362D2
:100D0B009002E2F01253569002E3F0EF7F0030E1D5
:100D1B00027F02EF44019002E4F09002C4E0700500
:100D2B00740CF0F1607BFF7A037965F1279002DA9E
:100D3B00F1B7248E7002C11224EC6002C14DF18810
:100D4B00641170357BFF7A037978F1BF7486F0A359
:100D5B007412F012605190029CEFF0A37403F0A395
:100D6B007443F0A37403F0A3744EF074071266641B
:100D7B007E0030E1027E02C13A120044F188641316
:100D8B006002C14D7BFF7A03798DF1BF7486F0A3AE
:100D9B007414F09002DAF14090029CF07F56516C83
:100DAB009002DAF140B420047F32803A9002DAF1FB
:100DBB0040B430047F33802E9002DAF140B47004DB
:100DCB007F3480229002DAF140B484047F358016A0
:100DDB009002DAF140B472047F36800A9002DAF1A5
:100DEB0040B4860C7F37516C90029D7401F08009E2
:100DFB007F38516CE490029DF0740412671C7E00E6
:100E0B0030E1027E028028120044F1886404702ACB
:100E1B007A0379B0F1BD7472F0A374051253951275
:100E2B00571BF0740812671C7E0030E1027E02EE45
:100E3B004421126623121FF780087F4D516C7F31BE
:100E4B00516C9002DAF1B724D0600A24AB604824CD
:100E5B00656002E11DF18864026002E11D7F425171
:100E6B006C7F67516C9002DAF1B790029AF0A37421
:100E7B0003F0E5907F0130E7027F0090029CEFF0DA
:100E8B0074031266647E0030E1027E02EE440112AE
:100E9B006623121FF7807B120044F188146025240F
:100EAB00FD6040146057240370689002DEE0FF90F1
:100EBB0002D9E0FD9002E4E0FB1224B47BFF7A033D
:100ECB0079CA804C7BFF7A0379E9F127125E5E9039
:100EDB0002DDE024FD90037FF07F0112302C1231F4
:100EEB0081802F125E5E9002DDE024FD9003E7F01F
:100EFB007F011230CD7BFF7A04790880139002D9E1
:100F0B00E0FF9002E4E0FD12279B7BFF7A04792A35
:100F1B00F1279002C4E0B40C02E4F02290042E12EC
:100F2B0005CC90042EF1B7600B90042E1217D2FF54
:100F3B00516C80EE221205AC90000202046D516CD4
:100F4B007F20416C516C7F4E416C516C7F66516CB4
:100F5B009007EAE0229002C4E01238EC6003120022
:100F6B00257BFF7A007974F1277E387F3212106A65
:100F7B009002D0EFF061C6E92DF9EC3AFA9000013E
:100F8B0002046DEFB4010F7F4EF155FF71C6900750
:100F9B00EAE004F0616DE49007EAF022E0FF71C62D
:100FAB007F2022516C7F6E416C9003821205AC0244
:100FBB0004547BFFF12790029A22516C9003E0744A
:100FCB0001F0C2259157E49003DFF09002C4F022A8
:100FDB009003BEE014F0701D7BFF7A00790EF127B1
:100FEB001254FB9003BDE0C3941B5003E004F0903C
:100FFB0003BDE0A3F022900470EFF0D21F7C087DBC
:10100B00A611B5F47058900470E09003BBB40107BF
:10101B00E4F0A304F080227407F0A304F0A374019E
:10102B00F0A3F01260D5EF543F2432FD7E0F7FDB2F
:10103B007BFF11749003BAEFF07E087FEB116A907F
:10104B0003BFEFF0301E17900470E0B401107A006C
:10105B007B3CE4FD7FFF1239FCEF6002C21E227B5A
:10106B00FF7D648004E4FB7D649003F67403F090D1
:10107B0003F2EEF0A31239F5EBF07FFFA3E0F9E9F1
:10108B00C3940A5024E9123709E0FCA3E04C701614
:10109B00AF019003F2126788FBA3E09003F1F0120B
:1010AB003731E904FF220980D62211BC9003BFE03F
:1010BB0022900446EFF0A3ECF0A3EDF0780BE27076
:1010CB00303102900446E0FF24FF9209EFB4010394
:1010DB00D38001C3920D30091D900447E0FFA3E0BC
:1010EB009000F0CFF0A3EFF0200D0B753C01C21573
:1010FB0022E4FF123BB6227B017A0379FC9003C9F1
:10110B001205CC7A03091236599003FDE0FFA3E0D8
:10111B004FFFA3E04FFFA3E04F70073153AD5702D2
:10112B0049CD7B017A0379FD9003A2315031666082
:10113B000A12610460053147123659227B007A008E
:10114B0079579003C91205CC7BFE7A007913229054
:10115B0003A21205CC7B017A0179FD7F04316CEF80
:10116B002290039F1205CCAE071FEE60119003A2D5
:10117B00F1D2FE90039FF1D26E60EC7F01227F00D3
:10118B0022AC059003F71257358B138A14F515EC27
:10119B00D39408500281B1125356FDECC39D5002FB
:1011AB0081B1125034EF600281B1F51AA20F920790
:1011BB001265CB7B007A0079131257E49003F7F199
:1011CB006BFF540F6401705EEF30E70BF162F1DCE3
:1011DB00E92FF9EE3A800A91BEE07B012409F9E48C
:1011EB003EFAE92401F9E43AFA9003F91205CCE549
:1011FB001A546070319003F9120FB7FF600864182E
:10120B006004EFB40705E51A30E716EFB403179047
:10121B0003F91205AC1267619003A231503166706D
:10122B00057FFE12539C91B2F5127801F2E51A304C
:10123B00E24F900236E020E7487F031229479002E5
:10124B0009E51BF0124DAEF17430E509900206E092
:10125B004420F08029F1CB12045464017020120F4A
:10126B008864187019E519B40409121FDDFF1244C4
:10127B00678009F1CB120F43FF1262458F33124384
:10128B005C20040261DFE51A30E61F124DAE124DF1
:10129B0007C4540F9001FCF0E4123F96900219E042
:1012AB0054F0FD7BFF123D7461EEE51A20E1026103
:1012BB0080E4F512900214E0FF540F6401600261A8
:1012CB0055EF20E702615090023AE0FFD3940A40B9
:1012DB0007900219E0FE80047880E6FE8E5AE55AEC
:1012EB00540FFEB40F028022EFD3940A400A741AF3
:1012FB002E122FCCE0FF800674812EF8E6FF8F12A2
:10130B00E55A54F0C4540FB506057862E6F5122081
:10131B0000387807E270337805E220E10F702B91EB
:10132B00B265127025E512786266601E7F0C123F63
:10133B00AE1247217C477D28E4A3F0123D2EEF60CF
:10134B0009D20080057862E6F512900236E0FF20A4
:10135B00E50261EEA3E06403700261EE91B26512E7
:10136B0060057805E2607CEF54DF900236F0F1EA1D
:10137B00123D8E806EE51A30E519900236E0FF3093
:10138B00E46154EFF0F1EA91BEE0FF123FCF12603F
:10139B00338050124D61F4601591BEE0FFF16F5434
:1013AB000FFDBD0203D38001C34003123FCFE51AEB
:1013BB0030E30B91BEE0AA06F97B01122BEB203236
:1013CB0022124D6D91B2FDF1CB900370E519F01225
:1013DB001932800F900237E0B40408A3E0FF6003DA
:1013EB0012491BE51A20E40281B130010281B17F61
:1013FB00013007027F028F12D2057B017A0179FD42
:10140B00121F0B125E9BF15CFF540FFE124D07FD7A
:10141B0030E0031E8039EFC4540F146E7030ED3082
:10142B00E32CF15C125E8BF1E2E92D12508E540F1E
:10143B00701CEFFDE515240BF9E43514FA120F823D
:10144B005460FFBF200543120880034312100EF1B6
:10145B005C54F0FFEE540F4F90000A12535324F6D6
:10146B00F555D394384003755538AB13E51524095E
:10147B00F9E43514FA121F0B122F86AF55122928D7
:10148B00C20391B2FD124D67FBC003122F86123CB3
:10149B00F5E555F0A37481F0A3744FF0A374DEF05F
:1014AB00D003AF12F1F822AB13AA14A915900004C4
:1014BB0002046D9003F7E0FEA322E53F706BB13899
:1014CB0091B830E613900007E475F064120544748C
:1014DB000612049AC2038017F1741257547D04E468
:1014EB00FF122FD4B1387405B13512666DD203904B
:1014FB0000B0120F40FF121FDDFDF1E2AB01C00285
:10150B00C003B138125363900367F091B89003682E
:10151B00F0A37457F0A37407F0D003D002B13EEFE1
:10152B007007B138740712049A2212049A9000B013
:10153B000205AC900363EFF0A3EDF0AD03AC02E555
:10154B001FC394024002A1EA75120630030512452F
:10155B0085800FAA04A9057B01125363540FC45451
:10156B00F0FFEF4212B1F4245FF8A612B1F4245D40
:10157B00F8E4F6900363B1F22463F8A607B1F12403
:10158B0062F8A607B1F42461F87602B1F42460F88E
:10159B00E4F6900368B1F2245CF8A607AE04AF053D
:1015AB00AA06A9077B01B1F42464F81205A39003E2
:1015BB0067B1F22467F8A607900369B1EF2468F8C6
:1015CB00A60608A607D203AF1F051FEF7005AF12C3
:1015DB00122947900237E0700312435C7F0122D23D
:1015EB00037F0022E0FEA3E0FFE51F75F00EA422AF
:1015FB00E0FBAD57E4FF90030DEBF0755901900341
:10160B0011E0FEA3E0FC20E72130E409EED3943691
:10161B0040187F0022300609EED3942E400C7F0039
:10162B0022EED3943040037F0022E51FC394024087
:10163B0002E1558F11E51154186003431102B1F407
:10164B00245EF8E4F6B1F4245DF8E4F6AF05B1F4EA
:10165B002463F8A60790030DE0FDB1F42462F8EDC6
:10166B00F6FEBEFF0312678030060BC206B1F424F0
:10167B005DF876018011900312E030E60A7559048B
:10168B00B1F4245EF87606900312E05490702DE5C9
:10169B005964017027AF05124742EF601FE51154E3
:1016AB00186009B1F4245DF8740246F6900240E02C
:1016BB006003755904B1F4245EF8760290030DE0D3
:1016CB00FDB4FF03126780B1F4245EF8E6704B9013
:1016DB000312E0548564057041AF05124F4150333E
:1016EB00787EE630E40B540625E025E04402FF80CB
:1016FB00027F018F11B1F4245EF876047878E6B19D
:10170B00F32462F8A6071247AF600F12469975597A
:10171B00048007900312E054FBF0B1F4245EF8E66A
:10172B007002760590030E1205AC900311E0900346
:10173B0045F0900312E0900346F09003131266AE4F
:10174B00AD59AF111244C17F0122C206D2037F00F3
:10175B0022AB13AA14A91590000A02046D9003B3CF
:10176B00E0FEA3E0AA06F97B0190000502046DB12F
:10177B0038E4B135F17414600304704312572C90A4
:10178B000493F0602C1260D5B13890001612046DE2
:10179B0004FEEF8EF084E5F0FD900493E014F075F9
:1017AB00F064A42419FFE435F0CF2DCF3400FE8074
:1017BB00047E007F00B138125723740212049A2260
:1017CB00AB16AA17A91822E475F0011205B502048D
:1017DB0054C4540FFF7E00E9240BF9E43AFA2212A9
:1017EB003F9F120454FF120025E402049AD101EF2B
:1017FB0024FF9201227F48120A6C7F35120A6C4338
:10180B0080029003DE74FFF09003E0E0FF020C8097
:10181B00E49007EAF09007E87407F022111B7BFFB6
:10182B007A007997020F2790047EEFF07BFF7A0204
:10183B00794F120F279002D7E07007D224120C10A9
:10184B00116390047EE070021163E49002C4F09087
:10185B00047EE09002D7F022112711E5F1117BFFF6
:10186B007A017976120F277F167E00123524EF64EA
:10187B00426002F1117B017A0379E89003D1740382
:10188B00F07F137E001249BA9003D1E09003DDF094
:10189B009003D8F1EE1237AE1237E6EF6005123730
:1018AB002780F5F1E89003D8E0FFF1429003D8F1DF
:1018BB00E39003DDE0FF14F0EF600F12658B9003F4
:1018CB00DA122FECEF12049A80E7E5C820E7FB430E
:1018DB00902053B5BF7F0CDFFE227BFF7A0079840B
:1018EB00120F27E4FD7F10FE11FB7D427F127E005D
:1018FB001249BA800AE54A254BFFE433FEE4FD901A
:10190B000427EDF0900425EEF0A3EFF012230A90DC
:10191B000427E0FD6F600D900425E0FEA3E0FFF1CE
:10192B004A7F02227F012290036B1239F512570175
:10193B00FFC39420401DEFD394FF501790036BE02F
:10194B00FFA3E0FDA31205AC900370E09002DDF065
:10195B00020CDE90036D120FB764016002C1FD1221
:10196B000F8812069D1E2B0119D60219F0031CCAF3
:10197B00041D89051998081C9C0B1AD50C1C1614F0
:10198B001A77161AC1171EF32200001EFD300C0227
:10199B00C1FD200902C1FD900370E0C39403500206
:1019AB00C1FD90036D120F4020E002C1FDD20E90DD
:1019BB00036BE030E10AA3E0FFE4FBFA7D02802237
:1019CB0090036CE0FFE4FBFAFD801790036CE0FFE3
:1019DB0090036BE07E0030E1027E02EE4405FDE4F5
:1019EB00FBFA0239FC300C02C1FD200902C1FD904B
:1019FB000370E0C394074003D38001C34002C1FDD1
:101A0B00780B7401F290036D120F40F55790036D34
:101A1B00125E61F10B1211537F041229281211531C
:101A2B00AD571249CDE5577003124DC5E5577034CC
:101A3B0012613B754A19E54AC3946E50161266A1A2
:101A4B00E54BC39410500731001261DC80F2126633
:101A5B00F180E3E4FD7F08FE310AE4FD7F09FE31EE
:101A6B000AE4F554E4FF123BB6024A7B780FE270AE
:101A7B0002C1FDE5547005755101800385545190E9
:101A8B00036D120F40F5521257967416F0A3E552E0
:101A9B00F0123CEF7403F0A37405F0A37457F0A39A
:101AAB00746CF0AB51AD577F01121601EF6002C1A0
:101ABB00FD7F0202576C900119E064036002C1FDC7
:101ACB0090036D120F40FF0231E31266E740028173
:101ADB00167409C39F500281167551FFC2D590032E
:101AEB006DF1DAFFC45407F55B7007120F43F55322
:101AFB00D2D5E553700261DDE4F54A744C254AF802
:101B0B00E6FF65536012EF7008E551B4FF03854A99
:101B1B0051054AE54AB405E3E54AC394054010E58F
:101B2B005194FF500A85514A744C254AF8A653E547
:101B3B005BC3940440028109E54AC39405400281CA
:101B4B000930D507E54A04FF124F2AE54A75F01113
:101B5B00A4F54A2419F54A30D507FF7E00AD533161
:101B6B000A054AE55B12672E90036DF1DA5407F50F
:101B7B0051E4F55B30D50BE551700712670B7DFE19
:101B8B008018E55BC39551501712670BD1FF124EAE
:101B9B007C7C00E9255B12508EFD310A055B80E2EF
:101BAB00E55BC394045006E54A255B3104E4F55B21
:101BBB00744C255BF8E6B5530ED1FFE55B04FD12C3
:101BCB006725124DD68037055BE55BC3940540E076
:101BDB00802C30D529754A19E54AC3946E501C12D6
:101BEB006771EF60111266A1E54BC394105007317A
:101BFB00001261DC80F21266F180DD12613B12286B
:101C0B00A77002C1FD1235680232461266E7507C9E
:101C1B007409C39F407690036DF1DAFFC45407F546
:101C2B005BEF5407F551E55B70147F05124F2A905B
:101C3B00036D120F40F554FD7F087E00310AE55B02
:101C4B00C394045047E551600F126643AD517C00BD
:101C5B00D1FF124E7C12494DE551700BE55B7007BD
:101C6B007DFE7F09FE8015E551C39404501012666A
:101C7B00437C00EF2551FFEC3EFEE4FD310AE554B9
:101C8B00600AD1FF126725E4FD124DD67F04023C9A
:101C9B00A91228A77002C1FD123237E4780BF21299
:101CAB003C9912362C9000EE1249337002C1FD9014
:101CBB00036D120F4024FEFF8D828C830206C7300A
:101CCB000C02C1FD900370E0C394045002C1FD905F
:101CDB00036D120F40D3941D4002C1FDA207920B5E
:101CEB007402123BB1D20C900119E0B404031261DF
:101CFB0014124A7B90036D120F402403FFE433FE52
:101D0B00900370E0D3125EA4400E120F43FF7E00CF
:101D1B00125E64124E848001E4780EF2780EE2704B
:101D2B00067E017F5980047E007FF890013C12579C
:101D3B0035C003C002C001D1FFF10BD001D002D0DE
:101D4B00037F2112292890036CE09000F6F0A31278
:101D5B00676930E1079000F7E04402F0D212F1CF4F
:101D6B00FF2403FDE43EFAA9057B01F1C7E0FD1258
:101D7B0065ABEF24079000EDF0E4FF023AFE780B21
:101D8B007404F2123C99900370E0D39402400890D3
:101D9B00036D120F408001E4780EF2780EE2FB70B7
:101DAB00067C017D5980047C007DF890013CECF0B1
:101DBB00A3EDF0F5828C837401F0A37406F090030D
:101DCB007212676930E107900372E04402F0F1CFC1
:101DDB00FF123C257004F1C704F0F1CFFF123C2534
:101DEB00F1C7A325821220FCEBF1CEFFAA06F97BEB
:101DFB0001125F6EF1C7E02404FF780EE27E0070E3
:101E0B00027E01C3EF9E900311F090037212668560
:101E1B0090036C1215FBEF6002C1FD7F02023BB613
:101E2B00900370E0FFC39406E494005002C1FD8F51
:101E3B004B7B017A0179257D14E4FF122FD490039B
:101E4B006DF1DA20E257E92403122F9644041204B1
:101E5B009AD1FFF10B7B017A01791D7F061229289C
:101E6B00900122E0A3F0126148E4900124F0054BAD
:101E7B00054B900370E0FF24FAFDE434FFFCD3ED37
:101E8B009400EC94004049EF24FAD1FEE92406F9C2
:101E9B00E43AFAF10B7B017A0179258030900370DB
:101EAB00E0D1FEF10B7B017A01791D1229289001FB
:101EBB0020E020E11B126148054B900370E024FBEE
:101ECB00D1FE126752F10B7B017A0179231229287B
:101EDB0090036CE0FD7B017A017922E54B24FB90AA
:101EEB0003C5F07F840239ED90036D120F40FF1292
:101EFB003CFF22FF90036D0205AC7BFE7A00791349
:101F0B0090039B0205CC7BFF7A01795F120F277B35
:101F1B00007A0079001267491253957F13FE123134
:101F2B00997D427F167E0001FBD230F1BC7F06F11A
:101F3B004211D5F1BC7F02E5C820E7FB8FB7229099
:101F4B0004211249ACEDF01237AE1237E6EF600503
:101F5B0012372780F5F134900421E0FFF142900411
:101F6B0021F1E3900423E0FFF14201D59003ACF1A2
:101F7B00EE1237AE1237E6EF600512372780F5F118
:101F8B00349003ACE0FFF1429003ACA3E0801B90D4
:101F9B0003B1E0FF14F0EF60169003AE1249B3608B
:101FAB00089003AE1217D28001E4FFF14280E001EA
:101FBB00D543B5405390DF7F0CDFFE228F828E839B
:101FCB00A3A322F090013CE0FEA3E02290040612B2
:101FDB0005AC90000302046DA3E0FFE142F1BC7F6E
:101FEB0003E142EEF0A3EFF0A30205CC900316F150
:101FFB00F190031BE0FF30E502D20690031C1205A3
:10200B00ACE94A90031760371205AC9002F5120544
:10201B00CC90031AE09002F8F0A3EFF090031C129F
:10202B0005AC9002FA7159E0FFA3E09002FDCFF0EE
:10203B00A3EFF0900316E0FBAD57E4FF02461A1234
:10204B005F6B90031AE0900311F090031BE0900379
:10205B0012F090031F123A4A9003160215FB9004DC
:10206B007CEFF09002C7E0FFC39403503211E8E01D
:10207B0060257BFF7A0179C3120F277A0179DF1173
:10208B00DEE0FF120BC67A0179EB11DE7144742787
:10209B00F0745BB146802E9002C7E004F080C490D0
:1020AB00047CE07BFF60237A0179ED120F2790020D
:1020BB00CBE090031AF0A3740571517438F0A3743C
:1020CB0062B1477FFF121FF7D3227A027904120FF6
:1020DB0027C3227BFF120F279002C7E0FF9002C598
:1020EB00E075F003A424E8F582E43403F583E5827C
:1020FB002FF582E43583F58322900246E0FFF1420F
:10210B00340711F7E0FEE4FD911E2D11FCE0FCC33A
:10211B009401400CEC9E5008911E2D11FCE004F034
:10212B000DEDB404E3F142340711F77401F022F919
:10213B00E43AAD01900453F0A3EDF0124AC89004B9
:10214B0001EFF0C39402400241F3900401E024D864
:10215B00F582E43407F583E0FFE4F54BEF6554605B
:10216B0010744C254BF8E66F600512677840F2054A
:10217B004BE54BD39405400241F3900402E54BF041
:10218B0071048F51E5515430FF602851F454C7F05E
:10219B0074DA2E51FB4410F0900401E0FE24E4129B
:1021AB00674054E7F074E42E126740FEEFC313FF51
:1021BB00EE4FF09004047404F01266C7E49004032D
:1021CB00F0126737504351F45407FDEFC39D500A8B
:1021DB00EE1266BB11F7E0FF800C900403E0700475
:1021EB007FFE80027F00900405EFF0E0FFC00790B8
:1021FB000403E0254A7106C3D0E09F900405F070FC
:10220B0008900403E004F080B8900403E0640470C9
:10221B000241F37404254AF54A90040412384F50D6
:10222B009B1266C7E4900403F0126737501AEF71E4
:10223B0060EF75F004A4254A125E93710AEF6008F3
:10224B00900403E004F080E1900403E0C3940440A5
:10225B00037403F0900403E07160900403EFF01239
:10226B00672E900401E051F95407F551E4900404F2
:10227B00F0E551700BE0254AFFE433FE7DFE801C38
:10228B00900404E0FFC39551501D900401E01266C9
:10229B00BB11F7E0FDE54A2FFFE433FE12190A905C
:1022AB000404E004F080D9900404E0FFC3940450CC
:1022BB0006E54A2F121904E54B71048F5190040166
:1022CB00E051F95438C39410500E123C808002C375
:1022DB0033D8FCF45251800B123C808002C333D8AC
:1022EB00FC4251E54B124E8D22900401E0FE24DAA4
:1022FB00F582E43407F583E022246EFFE433FE908D
:10230B00044CEEF0A3EFF01237AE1237E6EF600598
:10231B0012372780F5121FE890044CE0FF121F4282
:10232B0090044C121FE312658B90044EEFF01218C1
:10233B00D590044EE0FF22F583E0FF9002CBE090B6
:10234B00031AF0A37425F07B007A007900A3120521
:10235B00CC90031F2204FFAD4BE4FEEEC39404505C
:10236B0015AC060EED91202C11FCE0B507EDEE142B
:10237B00FF900246F0227F0022900484EFF0F11FC1
:10238B00505EF14E2408FFE43EFE710A7878EFF6BA
:10239B006046F1307164EF75F004A4FBAAF0F14EC6
:1023AB002409FFE43ECF2BCF3AFE12667812189B1E
:1023BB00900484F1F26029E4FF747A2FF8E6700E32
:1023CB00900484E0601AEF701774FFF08012787934
:1023DB00060FEFB404E380089004847404F0809E2D
:1023EB00F11F400574FFF08024E5107104AB07F179
:1023FB0030F139088005C333CE33CED8F9FFEBFD6E
:10240B00EF5D7006787E7608800312665190048427
:10241B00E0FF22E51025E025E024BFF582E4340738
:10242B00F583E58222900485EFF0F1175046F1CF4A
:10243B007878EFF66036F1277164EF126645126615
:10244B007812189B900485F1F26029E4FF747A2FBF
:10245B00F8E6700E900485E0601AEF701774FFF0C9
:10246B0080127879060FEFB404E38008900485742A
:10247B00FFF080B6F117400574FFF080267F6E7E6B
:10248B0000710AAB07F127F139088005C333CE334E
:10249B00CED8F9FFEBFDEF5D7006787E76088003F2
:1024AB00126651900485E0FF22900415EFF0A3EB28
:1024BB00F0302702A144D227E4A3F09003EBEDF018
:1024CB00E4900418F0F1EA7403F0900418E004901F
:1024DB00029CF0A37403F0E4A3F09003ECF09003E0
:1024EB00ECE0FFC39403502790041811EBE0FF605E
:1024FB0019900417E07C007B01249FF9EC3402FA5D
:10250B00EF12049A900417E004F01231BF80CF90C1
:10251B000417E0240590031AF0900416E090031BB7
:10252B0071517430F07424B1469003EBE0FF121F2D
:10253B00F7EF7002C227A22722C322A3F00B7A0265
:10254B00799A22F108B189D1A5B17CD1A5714274D8
:10255B0038F0A374A7B147021FF7F108B189D1ADC9
:10256B00B17CD1AD71427438F0A374C2B147021F74
:10257B00F7F583E0FF120BC67BFF7A0179EB120FA5
:10258B00279002C5E075F003A4229002C47403F0F7
:10259B009002D7E07002C16C7BFF7A0079E0120FDA
:1025AB00271238F74002C1487BFF7A0079EE120FF1
:1025BB00277F01D1B550257A01790DF10FF1E3D1C8
:1025CB00E7EF6004E4FF80027F01D196B18CF191BB
:1025DB00E06004D1758005E49002C4F07F02D1B5B0
:1025EB00502C7BFF7A017911120F27C229F1DCD114
:1025FB00E7EF6004E4FF80027F01D196B18CD1A597
:10260B00F583E06004B14E8005E49002C4F07F03D3
:10261B00D1B550377A017915F10FF1D5D1E7EF60CC
:10262B0004E4FF80027F01D196B18CD1ADF583E03C
:10263B006004B1658015E49002C4F0800EE4900252
:10264B00C4F07BFF7A017919120F279002C6E07F45
:10265B000160027F009002C6EFF0FDE4FFFE02185E
:10266B00FB7BFF7A017935023859F108B18924E8EF
:10267B00F582E43403B17C24E8F582E4340371423F
:10268B007438F0A37482B147021FF790029A74203A
:10269B00F0A37401F0A3EF02391D24E9F582E434B1
:1026AB00032224EAF582E4340322EF24FE600A14A9
:1026BB00600A24027009A21822A21922A21A22C3AC
:1026CB0022EF24FE600C14600E2402700EA22992DD
:1026DB001822A229921922A229921A22EF24FE6013
:1026EB000D146010240270129002EEE0FF22900293
:1026FB00EFE0FF229002F0E0FF227F00227BFF7AC7
:10270B00027936227BFF120F27C22922900485E023
:10271B00C3940422900484E0C3940422900485E0C3
:10272B0004FFE4FD22900484E004FFAD10227164E9
:10273B0074017E00A80722E51025E025E024BFF5F3
:10274B0082E422AF107E007C007D111204CEEF22BA
:10275B00900478EFF09002C7E0FEB18CF191E58226
:10276B002E11FC12389F7A017988120F279002C71D
:10277B00E004F0E4FF11694008900478E0FF1238A0
:10278B00622275F003A424E8F582E43403F5832276
:10279B0020272CD227F1EA7406F0A37401F09003E2
:1027AB00EBEFF090031A7403F0A3ED71517430F05A
:1027BB00A37424B147121FF7EF7006C2278002C320
:1027CB0022A227227F087E00610A7F03D1CC7F03E0
:1027DB00227F02D1CC7F02227F01D1CC7F012290BC
:1027EB00029A7485F0A322E0C454F07879F608E6D7
:1027FB0064FE22900475EFF0BF011B9007EAE00422
:10280B00F07F56120A6C7F41120A6C900475E0FF40
:10281B00120BC6020B6D900475E070049002C4F0AD
:10282B002290045DEDF090045CEFF0602C7F56126B
:10283B00671490045CE0FF120BC69002C47402F0A4
:10284B00E49002D3F07B017A04795D9003D6742770
:10285B00F0A374FEF07D011165229003D21205CC1A
:10286B00E554600411A76002C322E4FFEFC39D503F
:10287B000E9003D21205AC8F821231D1FE80027EF4
:10288B0000744C2FF8A6060FEFB405E09003D6E0CA
:10289B00FCA3E0FD7F0111AEEF24FF22900119E0B4
:1028AB00640122900462EFF0A37407F0E554600416
:1028BB0011A760037F00229001197402F0AF0590FD
:1028CB0000EEECF0EF1257947415F07B007A007960
:1028DB004C121F0B0B7A0179407F05312890046253
:1028EB00E0600C90014574FFF0900463E004F0127B
:1028FB004D52125F6E900463E0900311F0A37405C8
:10290B00F0A37432F0A3747DF0AB541215FDEF708D
:10291B00030262287F01227A02790F7F04900398C9
:10292B001205CCAE071FEE601290039B1217D2FE5E
:10293B00900398F1ECEE12049A80E822EF540FFC0E
:10294B0064036009E4900239F09001FCF0F1BBFEE6
:10295B00900215E054F04EF0EC14604114700261DB
:10296B001124FE7002411424FE70026143240360A3
:10297B000261A4121F057A027901F19D900205E50F
:10298B0057F0A37403F0E51E540FFFA3E054F04F70
:10299B00F0A3740AF0900236E04480F02290021407
:1029AB007401F0785CE630E01D20E702800C788043
:1029BB00E6540FFFBF0F07900214E04440F0900263
:1029CB00357403F0800271D2785CE630E707900231
:1029DB0014E04480F07811E2FF7E0030E5027E20A7
:1029EB00EF7F0030E4027F40EF4E5460FF90021502
:1029FB00E0549F71E17867E6240A71A97409F1B379
:102A0B0020E102614171D96141785CE630E64A7898
:102A1B006412058A120F8854F0FFC41247B2126772
:102A2B006112469F900240E02402FF786412058AEF
:102A3B00121F0B7B017A0279183128900240E0FFBC
:102A4B002402FDE433FC7866ED26F618EC36F6EF3F
:102A5B002403FFC37867E69FF69002147401F044D9
:102A6B0080F0785CE690023530E0057403F080036B
:102A7B007401F0E4900218F0900240E0FFC454F0AF
:102A8B00900219F090023D1205AC121F0B7B017ADC
:102A9B0002791A31287861E6FC5418FE60317863AC
:102AAB00E66557702A900218E0FD20E022785DE67B
:102ABB0020E11CED4408F0F1C47410F0EE25E02584
:102ACB00E0FE1266D2EEF0EC54E77861F6800790E8
:102ADB000218E054F7F0900218E030E30FA3E0C4C3
:102AEB00540FF1CAE0C4540F04FF80027F00900220
:102AFB0040E0240B2FFD71E3AF05EF71A5AF0590FF
:102B0B00023AEFF080309002147402F090021774C6
:102B1B001DF090020A1205AC121F0B7B017A027991
:102B2B00187F1D312871D27D26742671A57426F16C
:102B3B00B330E10271D98075786412058A121F0BCC
:102B4B0012471A7F1131287866741126F618E4366D
:102B5B00F6786774EE26F6785CE620E63178670641
:102B6B00F1ABA37405F0F1BBFFA3E054F071E17876
:102B7B0067E62412900216F0785CE6FD30E00790D1
:102B8B000214E04440F0ED30E10271D971B871D21A
:102B9B00A371B090023A7411F02204786726900268
:102BAB0016F0900236E05480F04440F022F1AB3046
:102BBB00050E7B017A027947121F0B3122C20522C7
:102BCB00121F057B0121229002357401F022900225
:102BDB0014E04420F0224FF07862E6900217F022C6
:102BEB0090043A1205CC3001028179917DE92409D8
:102BFB00F196440112049A4402917A121762540F0F
:102C0B00FFE9240AF19654F0917A12176254F0FE00
:102C1B00EF14540F4E90000A1204AC121762C454F6
:102C2B000FFF125356FEC39FFFC3EE9F2402F555B1
:102C3B00D394384003755538917D125E56121F0B95
:102C4B00F186AF5531287880E654F7F6C2037F0141
:102C5B003007027F02917D1214B8FBC003F186127C
:102C6B003CF5E555125026D003AD571217F822123A
:102C7B00049A90043A0205AC9004431205CC7D1BD8
:102C8B00E4FFF1D4B1591267529003021205CC7BC9
:102C9B00017A0179399003051205CC7BFE7A007914
:102CAB000C9003081205CC7A007911123FF77811BA
:102CBB00E230E007780F7401F28004E4780FF2B190
:102CCB0059740112049AB15990000174011204ACA9
:102CDB007F103008027F08EF44439000021204ACCF
:102CEB007811E2FF30E00CB159E92402F1964480EF
:102CFB0012049AEF7F0030E1027F80EF441CFF78D3
:102D0B0011E2FE7D0030E4027D40EF4DFFEE7E00D0
:102D1B0030E5027E20EF4EFFB15912570D780CE2D1
:102D2B00D3941440037414F2780CE2FF240708F2D6
:102D3B00E92407F9E43AFAC003C002C00190013953
:102D4B001205AC121F0BD001D002D0032128900426
:102D5B00430205AC785FE6540F900487F09002397C
:102D6B00E0600614F06002C1D41217EA900237E05B
:102D7B00FF64046007EF64056002C1BE7860E6542F
:102D8B00FEF630020D785CE630E507E49001FCF0CE
:102D9B00C120785CE630E27D785EE6FFD394045088
:102DAB004DEF6404701CE51090023C6008E004FFDA
:102DBB001223848006E004FF12243090023CEFF0D3
:102DCB008025785DE630E11254FDF67862E6FF125D
:102DDB0047427861A611785F80357862E6FF124F23
:102DEB00415004785E76041245BD5002C1BB785E3B
:102DFB00E6C39405501F7862E6FF1246A5B39220F6
:102E0B00C221124589EF4401785FF618760508E672
:102E1B00FF3147C1BB900487E0B404077862E6FF3B
:102E2B00124D15300202C1CF785EE6C39406400204
:102E3B00C1CF18E620E002C1CF7862E6FD786412BC
:102E4B00058A7867E6900357F0785CE654034401F3
:102E5B00A3F07868E6FF08E6A3CFF0A3EFF0786362
:102E6B00E6FFD1E0EF605DD1DA1217741257547D93
:102E7B0004E4FFF1D4D1DA7405D1D712666D78680A
:102E8B007657087607786176021214B8785CF612DA
:102E9B0053637867F6124585EF4406785FF6D1DA0F
:102EAB001217E278641205A3785E76067F06314727
:102EBB0002435C900237E0600BE4123F967BFF7D90
:102ECB0004023D747F04123E0922740112049A908D
:102EDB0000D20205AC9003521239F51205CC1254F4
:102EEB00DF8F3EEFC394024002E183EF125740D1D4
:102EFB00DAD1D5900001E41204AC900352E09000BB
:102F0B00021204AC900353E09000031204AC900344
:102F1B0058E0FF54F0FEC4540F9000051204ACEFC0
:102F2B00540F900004F1A3FF60289003541249B38F
:102F3B006020D1DAE9241CF9E43AFAC003C002C0DC
:102F4B00019003541205AC121F0BD001D002D00319
:102F5B003128D1DA90001674FAF1A32411900006EF
:102F6B001204AC900359E0FFA3E0900009CF8FF05F
:102F7B00120544E53E04FF227F00227B007A007994
:102F8B007F229003491205ACE92407F9E43AFA02CF
:102F9B0004547B017F0421281204AC900357E022D8
:102FAB007863E6900213F02290023AF0785CE62206
:102FBB00785FE654F0C4540F22A3E0C4540FFF24EF
:102FCB001AF582E43402F5832290042B1205CCAE61
:102FDB00051DEE600B90042BF1ECEF12049A80EFC1
:102FEB0022E475F0010205B59003E112384F501041
:102FFB007F54120A689003E1743CF0C224120C1047
:10300B00229003DEE0FFF46003120025111C020A7C
:10301B006C7F48120A6C7F3722900476EFF0C22740
:10302B002290037C1205CC90037BEFF06003E0143D
:10303B00F07BFF7A08791F120F2790037F11C57A57
:10304B00087940120F27E4900380F090037FE0FF94
:10305B00A3E0FEC39F5062A374FFF090037C31CCBE
:10306B00FFE49003ECF09003ECE0FEC394035028D4
:10307B0090037BE012278DE5822E1220FCE0600589
:10308B00B507118013900381E0B4FF089003ECE0C7
:10309B00900381F031BF80CE900381E0FEF460118C
:1030AB0090037BE012278DE5822E1220FCEFF0318E
:1030BB0081900380E004F0809222E0FF120BC67B2C
:1030CB00FF229003E41205CC9003E3EFF06003E0E2
:1030DB0014F07BFF7A087942120F279003E711C592
:1030EB007A087966120F279003E311C57A08797075
:1030FB00120F279003E7E0604AE4FF9003E7E0FE3E
:10310B00EFC39E5065E49003ECF09003E41205AC22
:10311B008F8231D1FE9003ECE0FD9003E3E0FC12D3
:10312B00278DE5822D1220FCE0B5060EEC12278DC3
:10313B00E5822D1220FCE4F0800631BFE0B403CA17
:10314B000F80B89003EC7403F09003ECE0FF900356
:10315B00E3E075F003A424E7F582E434031220F7CF
:10316B00E4F09003ECE014F070DF9003ECE0C39418
:10317B000350023181227BFF7A017948120F277BA2
:10318B00017A0379E81267491253957F13FE900376
:10319B0031E0FDA3E0900395CDF0A3EDF01249A033
:1031AB00900335EFF090033331DC600231C69003AE
:1031BB0035E0FF229003ECE004F022E4FB7D01E11B
:1031CB00D81205AC8E8275830002046D51379000C6
:1031DB00EEE0FEA3E0FF4E2290048B5195B16851B7
:1031EB004690048BE0640570207404513C9000F011
:1031FB007435F0A37447F07401123BB131D9602BD5
:10320B008F828E837F050206C790048BE0700D9032
:10321B00011B7413F09001197403F02231D960096A
:10322B008F828E837F041206C7513722126114746A
:10323B0001900119F0E490011BF0229003A8ECF02F
:10324B00A3EDF09003A5125701FFF4600302491B95
:10325B009003A8E0FEA3E0FFA3F1D39003A5F19F99
:10326B009003A5120FB7B4FF0831D760048F82F11A
:10327B0082229004895195900489E07004B1688092
:10328B00BA31D760048F82F18222EFF07F01EF60B9
:10329B000691C2B1A4800EF1A65004914180F8B101
:1032AB002AE433FF227F0122907FA2E493F5CF9093
:1032BB0003737460F0A374BDF09003797460F0A392
:1032CB0074CEF09003777460F0A374CCF090037518
:1032DB007460F0A374DFF01265DB126054E5C1205B
:1032EB00E00BE4FF91B9E49007E7F0800A9007E761
:1032FB00E070047F0191B912433DB1F29007E7E012
:10330B007005203202915A9007E7E060337F01513C
:10331B009912631A40269007E6E0600CE014F070F7
:10332B0007FF51997F0191AF9007E7E0601290077B
:10333B00E6E0FB7D027F05123AB980047F0291AF74
:10334B00124A0E780FE2B401047F015199D2AF12E9
:10335B004A851260F75004D22C91D390017AE06029
:10336B0059780BE27054F1A65004914180F8E52F87
:10337B0020E507780FE27002B12AF1E6EF70FB53FC
:10338B00B5BF90017AE0FFB4020575DA7E802BEFB2
:10339B00B4030575DA6C80FEEF6405701D7811E2DD
:1033AB0030E50743B3807F1F8002E4FF1260F49087
:1033BB0007E77401F075DA6C80FED1B0203205128C
:1033CB00094C80031200499141E52F30E1317F0216
:1033DB00B1CF855655C37440953590017BF005569A
:1033EB00E556C394024003E4F556E52F20E504911E
:1033FB00C2B1A4E55591C490017BE0FD12118C1272
:10340B005588615A900480EFF043AF1053B2EF43ED
:10341B00AE0253B1FD43AF0453B2FB43AF0853B2FB
:10342B00F753AFBF43B24053AEFE43B1015390BF0E
:10343B005380FE7F0122E52F30E2137F04B1CF12C0
:10344B003E81EF6009E52F20E5047F015199227F32
:10345B00607E00B17C7F807E04B17C7BFF7A027939
:10346B0060120F27D17C12186912486612381FA3FD
:10347B00E06007E49002D5F080069002D57401F06D
:10348B00B120BF420CE4FFFEB1249002C6EFF080E6
:10349B000BE49002C6F0FDFFFE1218FBE49002C491
:1034AB00F07F0122910F915AE49007E7F022910FE0
:1034BB00EF24FFB3923222E55675F040A4247CF53D
:1034CB0082E43401AF82FE22E4FF5199EF60451292
:1034DB001153C22F1240337813E2C394C040F07BD8
:1034EB00FE7A007915D22F1240337813E2FF08E2EF
:1034FB005FFF08E25FFF08E25FF460E3780FE2B47E
:10350B0001047F015199E4F557302C08121153AD8A
:10351B00571249CD227F127E001249BA02230AE5C7
:10352B002E70177F2012416BC2EB53C3BFE4F529FA
:10353B0075BE08E5BE20E3FBD322C32290048AEDBF
:10354B00F0EF7018900119E0B40404B168414631F2
:10355B00D760098F828E83E4FF1206C7227B017A24
:10356B0001791A7C377D899003AA74FEF0A304F0CD
:10357B0022C22AD29043AF0253AFFE43B201E4F50D
:10358B00D8BE0108BF800575D8208009BE0406BFD0
:10359B00800375D84043D89B22E52E7026C2EBC220
:1035AB001353C3BF8E278F28AA06A907752A018A32
:1035BB002B892C753540F5297F01B1CFB1D843C389
:1035CB0040D2EB22C2AFEFF4522FD2AF2275BE081E
:1035DB00E5BE20E3FB907F8A1266DD75BE0DE5BE6E
:1035EB0020E3FB7F2080DDF17612655240031260F1
:1035FB009E124A13D120124F0F121147D15912614B
:10360B00047004C22C91D3E55754032413F8E265DC
:10361B00577812F222121147D15951371227CF8FF7
:10362B0054754A19E4F54B126771744C254BF8A687
:10363B0007744C254BF8E6D394E84009E4F6AF4AFF
:10364B00FEFD12190A1266F112677840DA22900316
:10365B00C61205CC1257149003C9F19F9003C612E2
:10366B0005ACE94A600A12667E7F017E0012189B48
:10367B00229002C47409F07B017A0279D79003C9B6
:10368B001205CC7A027996D159B120BF420B7BFF40
:10369B007A0079B2120F2780061218271218E5E468
:1036AB009002C4F0227800E26051E214F2E4F55883
:1036BB00E558C3940A50EEF107E0FEA3E04E6037E5
:1036CB00F1071264E27030F117E06008F46005F165
:1036DB0017E014F0F117E06011E55812493BE0FEDA
:1036EB00A3E0FFF107EEF0A3EFF0E558126693129B
:1036FB004D591206C3F127055880B522E55875F0D0
:10370B0007A4244EF582E43402F58322E55875F0C4
:10371B0007A42454F582E43402F583229003753117
:10372B00DC6002F1B8229003EEECF0A3EDF0AA07F7
:10373B00AF03EF70010FEF75F005A4FFAEF0EA12C7
:10374B00493BEEF0A3EFF0EAF109EEF0A3EFF090B6
:10375B0003F1E0FFEAF119EFF09003EEE0FEA3E0D6
:10376B00FFEA126693EEF0A3EFF02275B53153AF7B
:10377B00DF43B2200218D58E837F010206C790016A
:10378B001BE004F0D39414400A31D960048F82F10A
:10379B00825137221205ACEF02049AAF2EEFC360B1
:1037AB0001D32290037731DC6002F1B822AA06A97B
:1037BB00070206C390037331DC6002F1B822900359
:1037CB007931DC6002F1B822E0FDA3E0FBE4900369
:1037DB00F6F002107A900477EFF02230300F12657A
:1037EB003AEF30E0037F0122C2307F00227F0022BC
:1037FB007BFF7A00794E020F279002CAE0FFF4603C
:10380B00031200257E377FFBE4FB7D321210749090
:10381B0002CAEFF09002D674FFF0229002C4E0B41B
:10382B000E037404F080ED9002D4114F5015740800
:10383B00F09002C4E0FF9002C8E0B507067A007969
:10384B0061115722E014F0E0D39400227BFF120F9A
:10385B0027E49002C4F02290047DEFF07A02791DE8
:10386B0080EAE49002C5F09002C7F07F0112206954
:10387B004004E4FF116222900479EFF012258C12C0
:10388B002791119F7A01799F120F27900479E0FFFE
:10389B0080C5F583E0FD12282C7BFF2290047AEF84
:1038AB00F012258C1226A5119D7A0179AB120F27E8
:1038BB0090047AE0FF80A090047BEFF012258C122D
:1038CB0026AD119D7A0179B7120F2790047BE0FF8B
:1038DB008085E411EC60091200259002D074FFF092
:1038EB00229002C8F09002D0E0FFF422E4FF1220F5
:1038FB00E8E06002D3220FEFB403F3C3227A00791E
:10390B00C6120FBD7420F07401A3F09002C6E090B4
:10391B00029CF09002CB7403F02290029A7420F078
:10392B00740380E531DF90047FEFF0BF0121120FAC
:10393B00D19007EAE060109003DFE0600AC2251225
:10394B000C57E49003DFF09002D3740EF0801290CA
:10395B00047FE0B4040B9002C47407F0B40802E4D3
:10396B00F07F0131C0500731941227E331A27F025F
:10397B0031C0500731941227DC31A27F0331C05084
:10398B000731941227D531A222E49002C4F09002A1
:10399B00D37404F0D22922EF24FE600D146010249E
:1039AB00027011E49002E6F022E49002E7F022E4C8
:1039BB009002E8F022EF24FE600C14600E240270DB
:1039CB00119002E680089002E780039002E8E02461
:1039DB00FF22C3229002E5E0FD64026002E4F0AF37
:1039EB0005229003C031F50205CCEFF0A3EDF0A357
:1039FB002290041D31F5EAF0A3EBF0124D52122C7C
:103A0B0083300E0FC20E512C90041DE0FBAD577F7F
:103A1B0002800B512C90041DE0FBAD57E4FF021606
:103A2B00017B017A01793E90030E1205CC780DE2F1
:103A3B00900311F090041EE0900312F090041FE02D
:103A4B00FFA3E0900313CFF0A3EFF0229004193102
:103A5B00F5EAF0A3EBF0912D7418F090041AE0FF47
:103A6B0051AF9000F4EFF090041AE09000F5F07570
:103A7B005101780EE2FF600C7F10B402027F08EF59
:103A8B004402F5517B017A0079F291F57404F0A3AD
:103A9B007411F090041B514A900419E0FBAD57AF21
:103AAB00510216011247B92F90088D93FF229004F3
:103ABB003D31F5EBF07811E254306006F1CC500259
:103ACB00C32290043EE0F4F5DC53B37F90043DE059
:103ADB00FF90017AB404087403F043B3808002EFC3
:103AEB00F0E5DC20E1031260B390043FE09007E6C1
:103AFB00F0D322900460EF121FCE91253333335451
:103B0B00F8900461F0200C0261AE900461E0FF902C
:103B1B000460E0FEC39F5051EE131313541FFF912B
:103B2B008BA31220F9E0FD7C00EE5407FF12273B1C
:103B3B00088005C333CE33CED8F9FFEE5CFEEF5DC4
:103B4B004E601E900460E090011CF0124495AD078E
:103B5B0090011CE004FF7A3C7B445157EF70468187
:103B6B0035900460E004F080A1C212C20C912D7458
:103B7B0007F0E4A3F0780B7403F27F01300B027FA4
:103B8B00027B017A0079F291F57403F09000F71241
:103B9B0066859000F6E0FBAD57121601EF70067FBD
:103BAB00028008C21222780BF2E4FF90048EEFF031
:103BBB009199780BE2FF6403605BEFB404028055CC
:103BCB00780BE2B40107C209E5577001F2780BE2FA
:103BDB00701AFF124A32C209E4780EF2200D0B78EC
:103BEB0011E2543070047F0191FFC20D9000F0126E
:103BFB0049336018780BE2FF8D828C83AD57120628
:103C0B00C7780BE270069000F0F0A3F0780BE2B4EB
:103C1B0001077403F27F0491A922F5828E83A3A37B
:103C2B00E0229000F27401F0A3227E3C7F4212311D
:103C3B00C6BFFF02914222E4FF90011CE090048C6E
:103C4B00F0EF6029E0FF131313541FFE918BA3E5D4
:103C5B00822E1220FCC083C082E0FEEF54079184B9
:103C6B008002C333D8FCF45ED082D083F090048CF6
:103C7B00E004FF41FE900403E0FF7401A807082253
:103C8B0090013CE0FCA3E0F5828C83A3A322781087
:103C9B00E2FFF46003120025781074FFF222900407
:103CAB008DEFF0919990048DE060049000EDF07E23
:103CBB003C7FCF7BFF7D2F1237D87810EFF2BFFF01
:103CCB000291CF229000EDE0FF14F0EF7015919967
:103CDB00780BE2B403028006780BE2B40405E4F23D
:103CEB00FF71B6227B017A01793E90030E1205CC4F
:103CFB0090031122E4F53CEF24FF9215EF60028054
:103D0B00097BFE7A0079180217ED78177478F27B2D
:103D1B00FE7A0079187C657DCE90038774FAF0A348
:103D2B007478F09003821205CC9003821205AC12CA
:103D3B0017EDAE04AF059003871237D390038212B1
:103D4B00379F120FB4B4FF04E412049A120FB4FF9E
:103D5B00228F828E83AE03AF05F19FAC83AD829031
:103D6B000387EFF0A3EEF080BA9004311249ACEB6D
:103D7B00F0AF05F1AEF19F90043112678890038884
:103D8B00F080A0785FE6540F640470567863E665A4
:103D9B0057704F900237E0B404037405F09002366D
:103DAB00E04410F0900218E030E31C122FC4E054F2
:103DBB000F70141266D2E05460600CF1A62403F16C
:103DCB00967BFF7D78808AE4F196F1A6FD7861E61B
:103DDB007C0030E1027C01EC243E8DF0A4FD7BFFE6
:103DEB008087900214E020E71090023CE0F460031F
:103DFB001221047E027F0FF1CF900236E0FF78682C
:103E0B00E6FC08E6FDAA044A6028EF30E2199001AF
:103E1B00FCE060092405FF8D828C838012F18FF505
:103E2B00828E837F018008F18FF5828E83E4FF12EF
:103E3B0006C7900236E05480F0E51F6003D51F12D1
:103E4B00900236E030E7028024E4900237F0C201A2
:103E5B0080211215F4FF7B007A00796A121F0B7A0E
:103E6B0000795C122928785FE6FF12294712435C20
:103E7B007F00227F0122D22B1247C9900237E064C8
:103E8B0002704C1247C130E307E054F7FFF0C10951
:103E9B00E51F6015900236E020E60E1217EAF18F4F
:103EAB00FF4E60031266F88089900236E0FF20E631
:103EBB0002E18430E506A37404F0E189EF30E408F5
:103ECB009002377405F0E18912435CC22BE18990B3
:103EDB000237E064036002E184900235E060401435
:103EEB00F0603CA3E04420F030E707124210C22BF5
:103EFB0080069002377404F0124371900239EFF090
:103F0B007E4F7FA7900214E030E710900218E0205C
:103F1B00E009F1C1B504047D07804DF1B680497805
:103F2B005CE630E049900214E0540FFFBF0503D369
:103F3B008001C34039900236E04420F030E707128D
:103F4B004210C22B80069002377404F0E4F1969075
:103F5B000214E030E710900218E020E009F1C1B53F
:103F6B0004047D078002F1B67BFFB1748010E4FF7F
:103F7B00D109EF24FF922B8005E4900237F0A22B9E
:103F8B00E433FF227868E6FE08E622900239F07EE1
:103F9B002D7F5F227B017A02793822900219E0C4CF
:103FAB00540F22F1DB900387EFF0227867E675F070
:103FBB000A842406FD22A3E0FDC4540FFCED540F2C
:103FCB0022A21122124B60022149E4780EF24157D2
:103FDB007861E630E115EF2403FFE433FEEF78025E
:103FEB00CEA2E713CE13D8F8FF8000227403124041
:103FFB0024742011247401112D7BFF7A04794FC096
:10400B0003C002C0019003051205AC1205F5900325
:10401B00081205AC740502049A12049A900302026A
:10402B0005AC9000010204AC90040B1205CCE4909B
:10403B00040EF0A3F0E52F20E502C32275D7087517
:10404B00CD01E5CD20E0FB75C5FF75C3437D1A900F
:10405B00040FE025E0F090040EE033F0E5C030E310
:10406B00FB43C008E5CA7E0030E6047F0180027F77
:10407B000090040EE04EF0A3E04FF0DDD2302F02A3
:10408B0011A890040EE0FF90040B12379F90040FC1
:10409B00E0FF90040B1205ACEF112DD32275BE0877
:1040AB00E5BE20E3FB907F82E493F52D907FB0E497
:1040BB0093B4421F907FB2E493FFF460048F378078
:1040CB0007907F81E493F537907FB3E493FFF4601F
:1040DB00028F2D907F83E493F5BEA3E493F5D9A3D0
:1040EB00E493F5D4A3E493F5D5907F91E493F5C5D0
:1040FB00907F93E493F5C7907F95E493F5AB43D70B
:10410B000875CD01E5CD20E0FB53D7F7E5CE540F75
:10411B002406FFD3940F40027F0FEF4410F5CE908F
:10412B007F92E493F5C6907F94E493F5B6907F8FDE
:10413B00E4934433F5C3E4F531E53190087393D33D
:10414B00953740070531E531B410EEE531C39410D6
:10415B0040057531FF8007E531C454F0F5317F2000
:10416B00C2AFEF422FD2AF22900322EDF0CEEFCEB3
:10417B00CDEBCDE52E6002410FC2EBC213EE54071F
:10418B00FFBF0203D38001C39210E4F529900324EF
:10419B001205ACCBE9CB8A388B39900327E0F53B82
:1041AB00A31205AC8B2A8A2B892C90032BE0F530BC
:1041BB007536FF752E01EE541860247F40316B75F8
:1041CB003413D21090044AE4F0A374FBF0EE5418AD
:1041DB00FFBF081D90044AE4F0A3743FF080123037
:1041EB00100C900322E0B401057534138003753471
:1041FB00097F041235CFCFEDCF718D7F01316BD29B
:10420B00EB75AC55221237A650026135900237E0A0
:10421B00B404037401F0126236503BF1211217ED16
:10422B00C2007804E204F2D39464401A1217EAF144
:10423B00C1E47804F2E51F600A123F8FFF4E600362
:10424B001266F8023E3D3007047F0280067171EF63
:10425B002402FF024EFAE47804F2900236E030E7D3
:10426B003DA37402F07F01300701FF900206E07B53
:10427B000030E5027B02C0037B017A0279019003D7
:10428B00241205CC9003277408F07A027909A31243
:10429B0005CC90032B7401F0D003E4FD61333000A7
:1042AB0003C200229002377403F0900236E054DF11
:1042BB00F07861E6FF540770087D01F1147861A670
:1042CB0007785CE65422F5127136BF060790021888
:1042DB00E030E10BE51220E5097862E6B4FF034319
:1042EB00120853120A785DE630E1067861E654E76E
:1042FB00F67136BF04047FE780027FFFEF786156CB
:10430B00FF18E65401FDF11A9003241205CC90021C
:10431B003AE0900327F0786412058AA31205CC7853
:10432B0067E690032BF0AB12317322785FE6540FE4
:10433B00FF22C2EBC2A9C211D2B9D2FB11A8C28D06
:10434B00753204758CC1758A7F438901D2A9D28CD1
:10435B0022F1C91237A6400DE52F20E20890023753
:10436B007401F05110221260D5EFC4540F6FFEEFA1
:10437B00C41354076EFEEFC413131354016E54038E
:10438B00FF22EF20E14B20120330E30BE531C39406
:10439B00F0503A91958032E5336020E4FFEF9008BE
:1043AB008D93B53309EF90087393F53380050FEFB9
:1043BB00B410EAAF3371DEE4F53322E531C394F088
:1043CB00500BE531540FFF600491678006AF3780C7
:1043DB0002AF2D8FEE30100543AB02800353ABFDC4
:1043EB0075BE08E5BE20E3FB907F881266DD75D7AE
:1043FB004453D4DF7D10915CDDFC43D480E5D420A5
:10440B00E7FBACD5907FB5E493FFF4600280027FAD
:10441B0002AB07C3741F9BFFECD39F4004741F9C1C
:10442B00FBEC2BF5D543D42043D4047D05DDFE53A3
:10443B00D4FB53D4DF91764006AF031BEF70E27DC4
:10444B0038915CEDB4180343D701DDF57F200235BD
:10445B00CFE5D320E1FBE5D330E1FB22F1B9FEEF51
:10446B00900883932E90087393FF227F78E4FE913C
:10447B005CE5D620E108E5D620E0030E8002E4FEE1
:10448B00EE20E402DFE9EEA2E422900449E0FDFF16
:10449B00C374109FFFE49400FEEFC4F8540FC86878
:1044AB00FFEEC454F048FEE53154F0C3125EA47F16
:1044BB00005002AF0522900340EFF0900346121517
:1044CB00F2245CF8A6071215F42464F81205A390E5
:1044DB0003451215F22467F8A6079003471215EF50
:1044EB002468F8A60608A607900340E0F5111215FC
:1044FB00F42462F8E6F512B4FF028017E5115407B5
:10450B00701730070E7801E2B512084311025311F0
:10451B00FE80064311015311FD1215F42461F8A618
:10452B00111215F42460F874FE56F630031DE511D4
:10453B00C330E101D39220ED540FFF64046003BF3D
:10454B000603D38001C3B17EFD8009E51E540FC461
:10455B0054F04DFDD2031215F4245FF8A605AF1FDE
:10456B00051FEF7005AF05122947900237E0700267
:10457B00715C229221B189ED4F22D220D2217F1D75
:10458B003020027F1CA807302113E6FF54F0FEBE3B
:10459B00F004EF540FF6741026F6E68011E6FF5484
:1045AB000FFEBE0F04EF54F0F606E6540FC454F0A2
:1045BB00FF2290023CE0F460547878E67862F6785B
:1045CB007EE6FF5406FE25E025E0FDEF7F0130E49B
:1045DB00027F02ED4F7861F6EE6006785DE654FEE1
:1045EB00F6F1AF7F0160027F04785FA607D199E6F1
:1045FB00FD7861E6A2E19220EDB40403D38001C300
:10460B00B17EFF785FF6D203122947D322C32290E3
:10461B0002F2EFF0E51F7071900237E0706BAF059F
:10462B007863A60718A6039002F2E0700FAF03D1D0
:10463B00A57F0250027F019002F2EFF0E4FE9002A0
:10464B00FA1231CC60050EEEB404F3785E7603906B
:10465B000240EEF09002FA1205ACD19FEE7D047091
:10466B00027D019002F51205AC9002F8E090034533
:10467B00F09002F9E0900346F09002FD1266AE90C6
:10468B0002F2E0FF91C17F0122D2037F00227B0067
:10469B007A00797A90023D0205CC90048FEFF0D12D
:1046AB00F7D22EEFF4600D74DA2F1222FBC320E445
:1046BB0001D3922E302E32E4FF90048FE0655460CC
:1046CB0015744C2FF8E6FE90048FE06E60070FEF29
:1046DB00C3940540EC0FEFD39405500DEF12230458
:1046EB00EF540FC37001D3922EA22E227E02EF60E5
:1046FB00159007D7E0600F74D72EF13AE0B5070499
:10470B00EE14FF22DEF17FFF22EF54F84DFF227BE8
:10471B00017A02790F227BFE7A00790722200008AA
:10472B00900237E06002715CC200F1210217EDF5D7
:10473B0082E43407F58322900468EFF0A37402F04F
:10474B00EF605E9007D7E06058900469E0FF24D7D4
:10475B00F13AE0FE900468E06E703E74D92FF5825A
:10476B00E43407F583E0FEF1B2EE7F0130E4027F23
:10477B0002900469E0FE24E3F582E43407F583E05C
:10478B0054184FF511EE75F004A424D8F9740735BD
:10479B00F0FA7B01D19F7F0122900469E014F07045
:1047AB00A87F00227879E6540F900240F022E53181
:1047BB0054F0C4540F22900236E0547FF0227BFE5B
:1047CB007A0079090217ED1248BEE59020E31490A8
:1047DB0002E9E0D394645004E004F0229002E57403
:1047EB0002F0229002E9E0FF6066D394024061EF91
:1047FB009432504D9002E57401F0E49002E9F09090
:10480B0002F1E004F0E0B401157E487F5C7B017D92
:10481B00641210749002EDEFF0F47034F0229002F9
:10482B00F1E06403702A9002EDE0FF600E9002E568
:10483B007404F0120025E49002EDF0E49002F1F024
:10484B00229002E5E0B402087403F0E49002E9F070
:10485B0022E49002F1F09002EDF022E49002E5F0F8
:10486B009002E9F0115D11867E477FD27BFF7D01BF
:10487B00121074EFB4FF02C322D32211A99002EEDF
:10488B00E09002EAF09002EFE09002EBF09002F081
:10489B00E09002ECF0E49002E6F0A3F0F022E59059
:1048AB0054109002EEF0E5805402A3F0E59054040E
:1048BB00A3F02211A99002EAE0FF9002EEE0FE6F56
:1048CB0060119002E6E0700B9002EAEEF09002E6C7
:1048DB007401F09002EBE0FF9002EFE0FE6F6011CD
:1048EB009002E7E0700B9002EBEEF09002E77401A0
:1048FB00F09002ECE0FF9002F0E0FE6F601190028E
:10490B00E8E0700B9002ECEEF09002E87401F022FC
:10491B001200035010313A3133600AEF123709ECB1
:10492B00F0A3EDF00EAF0622E0FCA3E0FD4C22EF6E
:10493B0075F007A42450F582E43402F583227F013D
:10494B007E0090035B31ACECF0A3EDF0A31205CC31
:10495B009003627401F090035D31C3603290035B8E
:10496B00E0FEA3E0FF90035F31B3600990035F1299
:10497B0017D2FD80027D0012190AEF14FF9003621B
:10498B00E02FF090035BE475F0011204E080C79018
:10499B000362E0FF2231BA900395E0FCA3E0FD80B7
:1049AB00A1EEF0A3EFF0A3221205ACEA494B22EFE4
:1049BB002420FFEE3401FE2274FFF5F01204F645BD
:1049CB00F0229004281205CC7F057E0012190A9064
:1049DB0004281205AC7D047C0031497F0122511360
:1049EB00510E781312057100000000121153E4FDF3
:1049FB0031CDB1C57B007A0079007D137C01314943
:104A0B00023620B152022C8390015B7401F0E4A3B7
:104A1B00F09000FA04F0E4A3F090013C7401F0A3D1
:104A2B007459F0C208E4FFEF6041D21D1246F7EF54
:104A3B006401703B9007D9E09007D8F0E4A3F090A5
:104A4B0007DBE09007DAF09007E5E09007E4B1258B
:104A5B00E4FF74E02FF582E43407F583E0FE74DCA9
:104A6B002F51C0EEF00FEFB404E822C21DC20A2290
:104A7B0090036CE0FF5132D20A22300A08780BE225
:104A8B007003FF5132301122900294E0A3E0FFC378
:104A9B00953A400BEF953AD39402400EC21122E5A2
:104AAB003AF42FD394014002C211229003B9E025AE
:104ABB00E025E024DCF582E43407F58322AD077FA3
:104ACB00FF301C02615FAF051246F7EFF47024B1A3
:104ADB000D5017E004F0E4FF91E8E060050FEFB430
:104AEB0002F6EFB4020D7F018009201D04E4FF8064
:104AFB00027F01900453E0FAA3E0F5828A83E0542D
:104B0B000FFEFC74DA2F91D6ECF091E8ED91F3F0F7
:104B1B0074DA2F91D6E04410F0EE6030E4FEAD0471
:104B2B001CED602E900453E475F00130310E91DED4
:104B3B00FDAB060EEF51BAE5822B800991DEFDEF3E
:104B4B0051BAE5822C1220FCEDF080D2EF51BA74F1
:104B5B00FEF0D21C229003B3EEF0A3EFF0201C0961
:104B6B0020070912176820E7037FFF229003B3B1D8
:104B7B00597B011214B8FF655760028003B167FFC0
:104B8B009003B8EFF01246F79003B9EFF0F4704CC6
:104B9B00B10D5033E004F0E49003B9F09003B9E0A9
:104BAB00FFC39402500D91E8E060089003B9E00454
:104BBB00F080E99003B9E0B402037401F09003B9FB
:104BCB00E024FF921B8015201D0CB21BA21BE433AB
:104BDB009003B9F080069003B97401F012176820A6
:104BEB00E70281A0121762C4540FFF9003B7F09035
:104BFB0003B9E0FE91D4EFF0B10730E32A9003B391
:104C0B00E0FCA3E0AA04F9121762C4540FFD7C0068
:104C1B001217E2120F825418FF74E42EF582E4345B
:104C2B0007F583EFF080099003B9E024E491F7F0E6
:104C3B009003B3E0FEA3E0FF240BF9E43EAD01A328
:104C4B00F0A3EDF0AA06A9077B01B10720E02390A2
:104C5B0003B7E0FF14F0EF604D9003B5B10091E1A5
:104C6B00FF9003B7E0FE51B6E5822E1220FCEFF069
:104C7B0080DDE4FF9003B7E0FE14F0EE60289003B4
:104C8B00B5B10091E1FEAD070F51B6E5822D1220B3
:104C9B00FCEEF080DF9003B9E0FF91D4E491F3F0E8
:104CAB00EF51BA74FEF09003B9E091D4E0FF7E00AF
:104CBB003007027E10EF4EF09003B8E0FEA3E0FF4A
:104CCB0024D891EBEEF0D21C2224DAF582E43407DF
:104CDB00F583221204E085F082F583E02274D82F4D
:104CEB00F582E43407F58322F074E42FF582E43483
:104CFB0007F583E422E475F0010204F69000090243
:104D0B00046D9007D7E0C39402221246F7EFF460CC
:104D1B0008201D0591E8E4B12522F09007D7E01497
:104D2B00F022900389121FEE90038E31C36017900F
:104D3B000389B100AFF0FE12230A90038B122FEC04
:104D4B00EF12049A80E2227B017A01793E22E0FE87
:104D5B00A3E0AA06F922AB13AA14A9159000080226
:104D6B00046DB1B5EF60047F0180027F00B1AE121C
:104D7B001774FD30E504EF4402FFE51A30E704EF4A
:104D8B004480FFED540FFDBD0506EF4410FF80126C
:104D9B00BD010BB161B4FF0AEF4404FF8004EF4483
:104DAB0008FF22AB13AA14A915229007D7E0B4026F
:104DBB0006301D037F01227F00227F0274D72F1242
:104DCB00473AE4F0DFF69007D7F022900409EDF0B4
:104DDB009004061205CC120F437002C166121FD746
:104DEB00C4540FF54B600B900409E01223048F5150
:104DFB008003E4F551121FD7540FFF90040AE0C350
:104E0B009FC3940540247E00D17CD184FFD167D110
:104E1B0075FFE54B702153510FEF54063333335469
:104E2B00F8FEEF54C04E4251800D53510FD1679095
:104E3B00000874081204ACD167B16730E30DD16D73
:104E4B008002C333D8FCF45251800AD16D8002C367
:104E5B0033D8FC4251900409E0D18D229004060214
:104E6B0005ACAF4B7401A8070822900008EF0204B1
:104E7B00ACE92404F9E43AFA22E92FF9EE3AFA0202
:104E8B000454246EFFE433FEAD5102190A53D8FDCE
:104E9B002253D8FEC22A22AFBF228FCBD22A224363
:104EAB00D8802253D87F22E5D8A2E122E5D87F0013
:104EBB0030E0027F0122E5D820E00512372780F68B
:104ECB0053D8FDAFBF22E5D830E102C22AA22AE4B3
:104EDB0033FF22EF540FFFD39409EF50042430FF1C
:104EEB00222437FF227F0D120A6C7F0A020A6C7B89
:104EFB00FE7A0079097C437D5C900387EFF0E4A395
:104F0B00F0023D2EE4900483F0F0900483E0FFC3A5
:104F1B009406500AF12A900483E004F080EC22E41A
:104F2B00FEEE04FDEF1224202E1220FCEDF00EEE0F
:104F3B00C3940440EC22900486EFF01227CF78192B
:104F4B00EFF27510FF90023CE510F0900486E0B58F
:104F5B00070FE4FF12243090023CEFF0E4F51080D1
:104F6B0030E4F512744C2512F8E6FF900486E06FDE
:104F7B0060090512E512C3940540E9E512C39405D7
:104F8B00500FE51204F510E4FF12238490023CEF5E
:104F9B00F0E510C394FF50028001C322900237E06A
:104FAB00B4041E900239E07011900235E064036086
:104FBB00067860E64401F602435C900239E014F097
:104FCB0022900237E070031217EA22900488EFF068
:104FDB00C20122C201EF6042787FE620E03C08E686
:104FEB00C454F0440518F608E6FF54F0FEEF24FE17
:104FFB00540F4EF6EEC4540F2402FEC2037F013051
:10500B0007027F02900217E0FD122F86123CF5EE8D
:10501B001126900213E0FB1217F822F0A37481F013
:10502B00A3744FF0A374D6F0229004341205CC7FF6
:10503B00FF9004341217D26FFFDDF6229004371263
:10504B0005CC900240E0B507119004371205AC1265
:10505B0014B8FE900217E06E6002C322E4FEEEC3AA
:10506B009F501D9004371205AC1217E2EE7C001115
:10507B008DFD90023D1231CC6D6002C3220E80DE9D
:10508B00D32229F9EC3AFA0204549004551205CCB8
:10509B00714A124D07541FF5417156FFE53C6401EF
:1050AB00601C7412D39F5016E541B402067419D3D9
:1050BB009F500BE541B40108741DD39F4002C322DE
:1050CB00714A12176230E20D124D67655760061276
:1050DB0014B8FF719CE54164027077715C715620C6
:1050EB00E76E1205D5124D676557701D301661C2FC
:1050FB00161214B8FD7F03D191714A1214B8FFD266
:10510B0031E9241312213A8047714A90000C1204A2
:10511B006DFF540FFE603971771E7C00E92E118EE6
:10512B006557702C714AEF54F024102E90000C121E
:10513B0004AC90000BE47147121F0B7F18717FC2F8
:10514B0003714A1214B8FF124D67FD718812153E98
:10515B00C322E4FF714A7177EF7C00118DB55702C2
:10516B00C3220FEFB404ED714A1214B8FF716354EC
:10517B000FFD91705002C322714A124D6765577033
:10518B000241837811E2FF543060024183EF20E04B
:10519B00024183E54164016007715C715630E71A87
:1051AB002015024183E541640160024183714A711C
:1051BB0069FEAF01B1354002418391DF8F3EBF02E3
:1051CB0002C322E541B4011B714A7169FA7B01C02C
:1051DB0003C002C001121F05D001D002D0037F040F
:1051EB00122928E53EF140714A7156FF122EDA1250
:1051FB0017E2C003C002C001714A121F0BD001D0CD
:10520B0002D003122928714A1214B8FF910D714A6A
:10521B007163540FFE91D6A606910476070876D0DB
:10522B0090000C12046D54F0FF604D24F0FF122E11
:10523B00DAF12CFEF164EE7C0029F9EC3AFAE55731
:10524B0012049AEF2E04FF122EDA900017714612F9
:10525B0014B8FF122EDA9000027146124D67FF123E
:10526B002EDAF10D122ED590000474407147715651
:10527B00FF122EDA7170D125714A124D67FF6557F7
:10528B006006EFF460026142715C715630E70261B7
:10529B0042E54160026142900455122F9044011285
:1052AB00049A714A7169FAC003C002C001715C9023
:1052BB000003120644714A715624EEFF715C717043
:1052CB001205D512177430E667714A1214B8FFC273
:1052DB0031E9240C12213A714A121F0B7F11717F95
:1052EB00714A1214B89000E67162540F9000E7F007
:1052FB00714AE9240CF9E43AFA121F0B7B017A008C
:10530B0079E87F051229289000D9E557F09000DC49
:10531B007419F0714A1214B8FD9000DDF0A37422D9
:10532B00F0A37407F0C2037188AF5712153E8009C2
:10533B00E541C37001D322C322D322EF1204AC90F8
:10534B0004551205AC0205D51204AC9000070204FB
:10535B006D9004550205ACF090000602046DE92433
:10536B0011F9E43A22900006EF0204ACE9240DF99E
:10537B00E43AFA227B017A0079D50229287A007B5C
:10538B00D59003677419F0A374C0F0E4A3F0A3F0F5
:10539B002290046AEFF06557604CE4A3F090046B25
:1053AB00E0FFC394025023EF71F6E0FEA3E04E60E2
:1053BB001171F2E0FEA3E0F58212378271F2E4F094
:1053CB00A3F090046BE004F080D390046BE091EDBC
:1053DB00E4F0C21790046AE0B4FE0B7FFE910D91CE
:1053EB000476070876D02290046BE075F04BA4246A
:1053FB0023F582E43400F58322EF25E025E02444F5
:10540B00F822EF70027FEF90049474FFF0FDFCE440
:10541B00FEEE9105E6FA08E6FBD39DEA9C5006AC3E
:10542B0002AD03A9069167E6B50704A9068014EE41
:10543B009105E6FA08E64A7005900494EEF00EEE3C
:10544B00B402CEEEC394024010900494E0FE94FF9D
:10545B005002A906E99168A607AF0122EE25E025C7
:10546B00E02442F822EFB55702D322EF70027FEF10
:10547B00E4FEEE9105E6FA08E64A601FEFB4EF088A
:10548B009167E6B4FE02D3229167E6B5070DEE9164
:10549B00D7E66D6004EFB4EF02D3220EEEB402D266
:1054AB00C322E4FF9104E6FC08E64C601891040863
:1054BB00E616187001161486044C700991D676FF07
:1054CB00EF9168E4F60FEFB402DA22EF25E025E066
:1054DB002443F822E4FFEF91EDE060050FEFB402F7
:1054EB00F52275F04BA4241AF582E43400F58322DF
:1054FB00300934200C31F114EF702C7B017A0079D8
:10550B00B7122C83E49000B3F0F11B04F0FB7A008C
:10551B0079B3780DE22404900357F0A374117195BD
:10552B007DFFAF57022EE07F002290046CF135C057
:10553B0003C002C0011211539003A21205CCD0017B
:10554B00D002D0031211667002D32290046CE0FEDD
:10555B00A3E0FFF5828E83A3E0FD8F828E83E04D67
:10556B00FF90046CE0FCA3E0FD123C92E04FFF8D3A
:10557B00828C83A3A3A3E04FC37001D3227F3F7D13
:10558B00401265E2E53F14700291ADE4F53EE53E55
:10559B0075F04BA4241AF9740035F0FA7B019000D6
:1055AB00B0F10124FE601624FE601614601814601E
:1055BB001914601A2406704C12177A8047D12E806A
:1055CB00431214C5803ED1C4803AD14580361215A2
:1055DB003890000912050C45F06020E53F6404602B
:1055EB0005120F88F54090000912050CF58285F025
:1055FB0083AF401206C7121538D125121538E412A5
:10560B00049AC217053EE53EC394024081E53D6016
:10561B0008FD7F01D191E4F53D22900009E4F5F0FE
:10562B00020544E53F147011D161500D20170AD2C9
:10563B0017121538740412049A22E53F24FD600DED
:10564B0014600A2403700ED161500A8000121538C1
:10565B00740712049A2212153890000712050CFFDA
:10566B00AEF0AD407C00D39DEE9C4008EF9DFFEE6D
:10567B009CFE80047E007F00F12390000712050C36
:10568B0045F024FFB322900414E0FEC3940250278C
:10569B00EE25E02410F582E43404F583EFF0AF053A
:1056AB00900414E0FE04F0EE25E02411F582E434BE
:1056BB0004F583EFF0D322C322E53F24FD602814C9
:1056CB0060172403702FD161502BC216121538901E
:1056DB00000174011204AC80171215381214B82093
:1056EB00E002800CD21622121538121FDDB54005D0
:1056FB00740712049A221205CC020454AD077F04DE
:10570B008084900003EF0204AC7F057E0002230A25
:10571B00A3F0A3F0A3F0A322900007EE8FF00205F5
:10572B004490001712046D540F22EEF0A3EFF0AA71
:10573B0006F97B012275F04BA4241AF9740035F09D
:10574B00FA7B019000D20205CC4420900014120485
:10575B00AC90001774401204ACE92418F9E43AFA3F
:10576B0022F1967417F0EF7006A37405F080069083
:10577B0001407404F0123CEF7403F0A374057195AF
:10578B00AB52AD577F01021601A3F090013E74019D
:10579B00F0A322900466ECF0EDF19404F0D206AB8A
:1057AB0007C003123CEF7402F0A37405F09004667B
:1057BB00123A4AD0031215FDEF24FF22E51E540FB7
:1057CB0060127802E2FF651E600A30010AE51E5482
:1057DB00BFB50703D38001C3229003491205CC1236
:1057EB0005D590034F1205CC125E50900007E412C2
:1057FB0004ACC204300C1BD146121774540FFF6457
:10580B0003600FEF64016002C138124D0720E10203
:10581B00C138E47805F2D146121F0B7A0179FD12DB
:10582B002F9D20321012115312115A6008122F8D16
:10583B00448012049AD15012535630E761E55760F9
:10584B0035301532D146121774540FFF6405604E74
:10585B00EF6401702112177430E71BD146121762E7
:10586B001217DCE92FF9EE3AFAD1649003A2121168
:10587B00501211666028200902A1A4200D20D146E8
:10588B0012177420E718E92409F9E4120F86B40300
:10589B000DD146D156D16412115A7002A1A4D14632
:1058AB00121774FF540FFEBE010CEF30E708124DB8
:1058BB000730E302D207125363540FFF7E00300709
:1058CB00027E80EF4EF51E785FE6FF7861E6FEEF15
:1058DB0054F0C4540FFDEF540FFFBF04047F4080FE
:1058EB00027F00ED4FFFEE7E0030E1027E80EF4E37
:1058FB007802F2D146121774FF540F24FE70028106
:10590B00F0147002A17C24FE7002A19D240460029D
:10591B00A1A4EF20E70281A3431E40121762C454D7
:10592B000FFF90034CF06006E0D394044009D15074
:10593B00900007E40204ACD146124D676557600234
:10594B0041B8124D0790034F30E3191205AC1217F3
:10595B00E0124E84FFC4540F29F9EE3AFAE9240100
:10596B00F9E4800D1205AC1217621217DCE92FF95E
:10597B00EE3AFAC003C002C001D1509000031206E8
:10598B0044D146124D0730E31F121762D18B121709
:10599B00E2E92D12508EC4540FFED146125356C35A
:1059AB009FC39E24F3FF8011D146121762C4540F7C
:1059BB00FF12535624F4C39FFFD139121762540FB1
:1059CB00FF90034CE06F6002415A122F8D44091275
:1059DB00049AD14612177430E608122F8D44041224
:1059EB00049AD1461217E27E00E92FF9EE3AFA90AB
:1059FB00FFFFD14C900008EF12535330E702811F89
:105A0B00D14612177420E702811F121762C4540F7C
:105A1B00FF1217E2124E84D394014002811FD1462C
:105A2B001217E2E92FF9EE120F8664036002811F51
:105A3B00D146121762C4540FFF1217E2E92FF9EE89
:105A4B003AFAD164121F0B7B01D19BD205811FD176
:105A5B0046121762540F640F6002811F12177430C5
:105A6B00E608122F8D440412049A1257C75016D110
:105A7B0046121762C4540FFF1250475008122F8D55
:105A8B00440112049AD146124D07FF30E107122F41
:105A9B008D44208009EF30E208122F8D4440120410
:105AAB009AD14690000BD14C124E75811FD14612E4
:105ABB001762FF540FFEEFC4540FFDEEC39D40025F
:105ACB0061C01217E2D16C1204546557600261C0B9
